:100000000C9440000C94C5100C94C5100C94C510B1
:100010000C94C5100C94C5100C94C5100C94C5100C
:100020000C94C5100C94C5100C94C5100C94C510FC
:100030000C94C5100C94C5100C94C5100C94C510EC
:100040000C94C5100C94C5100C94C5100C94C510DC
:100050000C94C5100C94C5100C94C5100C94C510CC
:100060000C94C5100C94C51001000102800102011E
:100070002800219801280130800130013D0021BE77
:1000800011241FBECFEFD8E0DEBFCDBFE8E6F0E021
:1000900040E017C0B591A59135912591059107FDD7
:1000A0000CC095918591EF01F92FE82F05900D92E5
:1000B000A217B307D9F7FE0104C01D92A217B30718
:1000C000E1F7E038F40731F70E946A000C947610EB
:0400D000F894FFCFD2
:1000D4000F931F93CF93DF93CDB7DEB7C758D109E2
:1000E4000FB6F894DEBF0FBECDBF0E9458101C821D
:1000F4001D821E821F821A8219821B8288E191E06E
:100104000E94FC051F928FE08F9385E291E0892F76
:100114008F9385E291E08F93CE0186599F4F292FCB
:100124002F938F930E9425100F900F900F900F9094
:100134000F900F90CE0186599F4F0E94FC0585E2D7
:1001440090E025E230E0F90120812D7FFC0120833D
:1001540085E290E025E230E0F90120812160FC0194
:1001640020838BE290E02BE230E0F90120812068CB
:10017400FC0120838BE290E02BE230E0F901208146
:100184002064FC01208380E090E0A0E2B1E488A335
:1001940099A3AAA3BBA320E030E04AE755E468A1F1
:1001A40079A18AA19BA10E94BE10DC01CB018CA382
:1001B4009DA3AEA3BFA320E030E040E85FE36CA1C1
:1001C4007DA18EA19FA10E94B41088232CF481E00C
:1001D40090E099A788A73FC020E03FEF4FE757E49E
:1001E4006CA17DA18EA19FA10E94B91018164CF597
:1001F40020E030E040E251E468A179A18AA19BA10A
:100204000E94BE10DC01CB01BC01CD010E94AA0EEC
:10021400DC01CB0199A788A70FC080E991E09BA7D7
:100224008AA78AA59BA50197F1F79BA78AA788A50A
:1002340099A5019799A788A788A599A5892B69F7F6
:1002440014C06CA17DA18EA19FA10E94AA0EDC0105
:10025400CB0199A788A788A599A59DA78CA78CA54C
:100264009DA50197F1F79DA78CA783E290E0FC017F
:100274008081882F90E08870992721E0892B09F4E8
:1002840020E02E839E8181E08927282F30E041E001
:1002940089819A81019709F040E0842F90E0822BB4
:1002A400932B892B09F402C18BE290E02BE230E01E
:1002B400F90120812062FC01208380E090E0A8EC19
:1002C400B2E4888B998BAA8BBB8B20E030E04AE7A1
:1002D40055E4688979898A899B890E94BE10DC016A
:1002E400CB0188AF99AFAAAFBBAF20E030E040E8C4
:1002F4005FE368AD79AD8AAD9BAD0E94B4108823ED
:100304002CF481E090E09DAF8CAF3FC020E03FEF44
:100314004FE757E468AD79AD8AAD9BAD0E94B91043
:1003240018164CF520E030E040E251E46889798900
:100334008A899B890E94BE10DC01CB01BC01CD01DE
:100344000E94AA0EDC01CB019DAF8CAF0FC080E9E7
:1003540091E09FAF8EAF8EAD9FAD0197F1F79FAF48
:100364008EAF8CAD9DAD01979DAF8CAF8CAD9DAD27
:10037400892B69F720C068AD79AD8AAD9BAD0E9429
:10038400AA0EDC01CB019DAF8CAFCE01805C9F4FE8
:100394002CAD3DADFC0131832083CE01805C9F4FA9
:1003A400FC01808191810197F1F79E01205C3F4F10
:1003B400F901918380838BE290E02BE230E0F90134
:1003C40020812F7DFC01208380E090E0A8ECB2E442
:1003D40088879987AA87BB8720E030E04AE755E4FD
:1003E400688579858A859B850E94BE10DC01CB01D6
:1003F4008EA79FA7A8ABB9AB20E030E040E85FE34D
:100404006EA57FA588A999A90E94B41088232CF40D
:1004140081E090E09BAB8AAB3FC020E03FEF4FE729
:1004240057E46EA57FA588A999A90E94B91018164A
:100434004CF520E030E040E251E4688579858A8516
:100444009B850E94BE10DC01CB01BC01CD010E9442
:10045400AA0EDC01CB019BAB8AAB0FC080E991E013
:100464009DAB8CAB8CA99DA90197F1F79DAB8CAB8F
:100474008AA99BA901979BAB8AAB8AA99BA9892BC3
:1004840069F714C06EA57FA588A999A90E94AA0E30
:10049400DC01CB019BAB8AAB8AA99BA99FAB8EAB3A
:1004A4008EA99FA90197F1F79FAB8EAB85E290E0EF
:1004B40025E230E0F90120812260FC01208385E2FD
:1004C40090E025E230E0F90120812E7FFC012083B9
:1004D4008BE290E02BE230E0F90120812068FC01FE
:1004E40020838BE290E02BE230E0F901208120644C
:1004F400FC01208380E090E0A0E2B1E48C879D873A
:10050400AE87BF878E010E5B1F4F20E030E04AE7C5
:1005140055E46C857D858E859F850E94BE10DC0127
:10052400CB01F80180839183A283B383CE018E5BD8
:100534009F4F20E030E040E85FE3FC01608171817F
:10054400828193810E94B41088234CF4CE018A5B8B
:100554009F4F21E030E0FC013183208369C0CE014C
:100564008E5B9F4F20E03FEF4FE757E4FC01608133
:100574007181828193810E94B91018160CF046C0D3
:1005840020E030E040E251E46C857D858E859F85D6
:100594000E94BE10DC01CB018E010A5B1F4FBC011F
:1005A400CD010E94AA0EDC01CB01F8019183808366
:1005B40024C0CE01885B9F4F20E931E0FC013183E8
:1005C4002083CE01885B9F4FFC018081918101973C
:1005D400F1F79E01285B3F4FF90191838083CE019F
:1005E4008A5B9F4F9E012A5B3F4FF9012081318135
:1005F40021503109FC0131832083CE018A5B9F4F56
:10060400FC0180819181892BA1F62CC08E010A5BAB
:100614001F4FCE018E5B9F4FFC01608171818281EF
:1006240093810E94AA0EDC01CB01F801918380839F
:10063400CE01865B9F4F9E012A5B3F4FF9012081CB
:100644003181FC0131832083CE01865B9F4FFC0105
:10065400808191810197F1F79E01265B3F4FF9015B
:100664009183808383E290E0FC018081882F90E075
:100674008870992721E0892B09F420E02E839E813C
:1006840081E08927282F30E041E089819A8102970F
:1006940009F040E0842F90E0822B932B892B09F4FE
:1006A40082C18BE290E02BE230E0F90120812062EC
:1006B400FC01208380E090E0AAEFB3E48C8F9D8F4F
:1006C400AE8FBF8F8E010A5A1F4F20E030E04AE7F9
:1006D40055E46C8D7D8D8E8D9F8D0E94BE10DC0146
:1006E400CB01F80180839183A283B383CE018A5A1C
:1006F4009F4F20E030E040E85FE3FC0160817181BE
:10070400828193810E94B41088234CF4CE01865ACE
:100714009F4F21E030E0FC013183208369C0CE018A
:100724008A5A9F4F20E03FEF4FE757E4FC01608176
:100734007181828193810E94B91018160CF046C011
:1007440020E030E040E251E46C8D7D8D8E8D9F8DF4
:100754000E94BE10DC01CB018E01065A1F4FBC0162
:10076400CD010E94AA0EDC01CB01F80191838083A4
:1007740024C0CE01845A9F4F20E931E0FC0131832B
:100784002083CE01845A9F4FFC018081918101977F
:10079400F1F79E01245A3F4FF90191838083CE01E2
:1007A400865A9F4F9E01265A3F4FF901208131817D
:1007B40021503109FC0131832083CE01865A9F4F99
:1007C400FC0180819181892BA1F62CC08E01065AEF
:1007D4001F4FCE018A5A9F4FFC0160817181828133
:1007E40093810E94AA0EDC01CB01F80191838083DE
:1007F400CE01825A9F4F9E01265A3F4FF901208114
:100804003181FC0131832083CE01825A9F4FFC0148
:10081400808191810197F1F79E01225A3F4FF9019E
:10082400918380838BE290E02BE230E0F901208118
:100834002F7DFC01208380E090E0AAEFB3E48C8B51
:100844009D8BAE8BBF8B8E01045B1F4F20E030E08D
:100854004AE755E46C897D898E899F890E94BE1080
:10086400DC01CB01F80180839183A283B383CE01A1
:10087400845B9F4F20E030E040E85FE3FC0160814F
:100884007181828193810E94B41088234CF4CE013B
:10089400805B9F4F21E030E0FC013183208369C0FD
:1008A400CE01845B9F4F20E03FEF4FE757E4FC010C
:1008B40060817181828193810E94B91018160CF0B5
:1008C40046C020E030E040E251E46C897D898E89A5
:1008D4009F890E94BE10DC01CB018E01005B1F4F7B
:1008E400BC01CD010E94AA0EDC01CB01F801918369
:1008F400808324C0CE018E5A9F4F20E931E0FC0151
:1009040031832083CE018E5A9F4FFC0180819181D7
:100914000197F1F79E012E5A3F4FF901918380838D
:10092400CE01805B9F4F9E01205B3F4FF9012081E8
:10093400318121503109FC0131832083CE01805B58
:100944009F4FFC0180819181892BA1F62CC08E01DF
:10095400005B1F4FCE01845B9F4FFC01608171815E
:10096400828193810E94AA0EDC01CB01F80191835C
:100974008083CE018C5A9F4F9E01205B3F4FF9012B
:1009840020813181FC0131832083CE018C5A9F4F19
:10099400FC01808191810197F1F79E012C5A3F4F10
:1009A400F9019183808385E290E025E230E0F9014A
:1009B40020812260FC01208385E290E025E230E082
:1009C400F90120812160FC0120838BE290E02BE27D
:1009D40030E0F90120812068FC0120838BE290E063
:1009E4002BE230E0F90120812F7BFC01208380E0A1
:1009F40090E0A0E2B1E4888F998FAA8FBB8F8E011B
:100A0400005A1F4F20E030E04AE755E4688D798DA5
:100A14008A8D9B8D0E94BE10DC01CB01F80180837E
:100A24009183A283B383CE01805A9F4F20E030E0AC
:100A340040E85FE3FC0160817181828193810E94BF
:100A4400B41088234CF4CE018C599F4F21E030E040
:100A5400FC013183208369C0CE01805A9F4F20E07E
:100A64003FEF4FE757E4FC016081718182819381FC
:100A74000E94B91018160CF046C020E030E040E2A5
:100A840051E4688D798D8A8D9B8D0E94BE10DC01A6
:100A9400CB018E010C591F4FBC01CD010E94AA0E3F
:100AA400DC01CB01F8019183808324C0CE018A59F3
:100AB4009F4F20E931E0FC0131832083CE018A5924
:100AC4009F4FFC01808191810197F1F79E012A5982
:100AD4003F4FF90191838083CE018C599F4F9E0132
:100AE4002C593F4FF9012081318121503109FC01FA
:100AF40031832083CE018C599F4FFC0180819181E9
:100B0400892BA1F62CC08E010C591F4FCE01805A9F
:100B14009F4FFC0160817181828193810E94AA0EA2
:100B2400DC01CB01F80191838083CE0188599F4F6A
:100B34009E012C593F4FF90120813181FC01318301
:100B44002083CE0188599F4FFC01808191810197B8
:100B5400F1F79E0128593F4FF9019183808383E285
:100B640090E0FC018081882F90E08072992721E039
:100B7400892B09F420E02C839C8181E08927282F8C
:100B840030E09B8181E08927882F90E082239323A2
:100B9400892B41F081E08B8389819A8101969A8324
:100BA4008983CDCA8C81282F30E08B81882F90E0F7
:100BB40082239323892B09F4C2CA1B82C0CACF9310
:100BC400DF930F92CDB7DEB78983000080EC90E00D
:100BD400FC018081882F90E080729927892BB1F3E2
:100BE40086EC90E02981FC01208300000F90DF91C6
:100BF400CF910895CF93DF9300D0CDB7DEB79A831A
:100C040089830BC089819A81FC0180810E94E1055E
:100C140089819A8101969A83898389819A81FC01C9
:100C24008081882379F700000F900F90DF91CF9196
:020C3400089521
:100C3600AEE0B0E0E1E2F6E00C94D90F4C016B01B6
:100C46001A8219828FEF9FEF9C838B831E821D82EF
:100C560058874F833A872987A12CB12CD6016D90EE
:100C66007C90F301EA0DFB1D808181110FC0D60136
:100C7600ED93FC938081853209F0D3C13F01BFEF2C
:100C86006B1A7B0AF6017182608219C0853279F38C
:100C9600B401082E000C990B0E94410D4FEFA41AC7
:100CA600B40ADCCF8C32ACF08D32F9F489819A81AA
:100CB60081609A8389833196D601ED93FC93D601A0
:100CC600ED91FC9180818B3269F789819A818460EC
:100CD600F0CF803221F489819A818860EACF83320D
:100CE60051F489819A818061E4CF803321F489812E
:100CF6009A818260DECFB701C6010E94D90E9E831B
:100D06008D8397FF0BC029813A81B1E02B273A8367
:100D160029839195819591099E838D8389819A81F5
:100D260080FF03C08D7F9A838983D601ED91FC9164
:100D3600119780818E3249F43196ED93FC93B70179
:100D4600C6010E94D90E9C838B83C6010E94990F0F
:100D5600582ED601ED91FC918081082E000C990B3E
:100D66000E948A10893609F443C084F4833609F454
:100D760002C134F4853209F427C18136E1F030C16D
:100D86008436B1F188360CF4D9C02AC1803709F40B
:100D96009AC03CF48E3609F4BCC08F3609F461C0A3
:100DA6001FC1853709F440C0883709F476C08337F8
:100DB60009F016C1F3C0652D70E0A701CE010B96B0
:100DC6000E940000892B09F426C1D601ED91FC9101
:100DD6001197CF0101968D939C932081AE01455FBB
:100DE6005F4FBE016F5F7F4FC4010E94000010C1BC
:100DF600652D70E0970141E050E0CE010B960E9410
:100E0600BD0B892B09F407C1F601808191810196FA
:100E160091838083AE01455F5F4FBE016F5F7F4F59
:100E2600C4010E94E10AF4C0652D70E0970140E01C
:100E360050E0CE010B960E94BD0B892B09F4EBC046
:100E4600D6018D919C91119701968D939C93AE013D
:100E5600455F5F4FBE016F5F7F4FC4010E948D0DDE
:100E6600D7C0652D70E0970140E050E0CE010B96AB
:100E76000E94BD0B892B09F4CEC0F60180819181B9
:100E8600019691838083AE01455F5F4FBE016F5F20
:100E96007F4FC4010E94E80CBBC0652D70E097012E
:100EA60040E050E0CE010B960E94BD0B892B09F461
:100EB600B2C0D601ED91FC911197CF0101968D93A9
:100EC6009C9320811CC0970140E050E060EF70E0E9
:100ED600CE010B960E94BD0B892B09F49CC0F6012E
:100EE600808191810196918380838B859C85892B56
:100EF60029F420E030E047E351E084C028E7AE0162
:100F0600455F5F4FBE016F5F7F4FC4010E94F309CB
:100F16007FC0A501400F511F652D70E09701CE01DE
:100F26000B960E940000892B09F475C0D6018D919D
:100F36009C91119701968D939C9373C0652D70E0DB
:100F4600A701CE010B960E940000892B09F463C00D
:100F5600D601ED91FC911197CF0101968D939C934B
:100F66002081AE01455F5F4FBE016F5F7F4FC401B9
:100F76000E9400004DC0B0E85B124DC0F6018081B2
:100F86009181019691838083D701ED91FC91119710
:100F9600CF0102968D939C93808120C0B0E85B12AE
:100FA6003AC0F60180819181019691838083D701B1
:100FB600ED91FC911197CF0102968D939C93408100
:100FC600518120E030E01EC0B0E85B1224C0F6017B
:100FD600208131812F5F3F4F318320838B870DC066
:100FE60085E28B87D6016D927C921A8219821E82C7
:100FF6001D828FEF9FEF9C838B8321E030E0AE0153
:10100600455F5F4FBE016F5F7F4FC4010E94070FB0
:101016008A0D9B1D07C0F6018081918101969183FF
:0C1026008083C5012E96EFE00C94F50FBE
:10103200CF93DF93CDB7DEB784EC90E02FEC30E0B6
:10104200FC013183208380EC90E022E0FC012083CC
:1010520081EC90E028E1FC01208382EC90E026E024
:10106200FC01208386E999E00E94AE098EE999E0AD
:101072000E94C50986EA99E00E94DC0910922901C2
:10108200109228010000DF91CF910895CF93DF9352
:10109200CDB7DEB784EC90E0FC011182108280ECC7
:1010A20090E0FC01108281EC90E0FC01108282EC65
:1010B20090E0FC0110820000DF91CF910895CF9360
:1010C200DF93CDB7DEB781EC90E021EC30E0F9019F
:1010D20020812861FC0120830000DF91CF910895D7
:1010E200CF93DF93CDB7DEB781EC90E021EC30E017
:1010F200F9012081277EFC0120830000DF91CF913E
:101102000895CF93DF93CDB7DEB781EC90E021EC69
:1011120030E0F90120812860FC0120830000DF918A
:10112200CF910895CF93DF93CDB7DEB781EC90E0F6
:1011320021EC30E0F9012081277FFC0120830000AF
:10114200DF91CF910895CF93DF93CDB7DEB781ECD6
:1011520090E021EC30E0F90120812061FC01208344
:101162000000DF91CF910895CF93DF93CDB7DEB723
:1011720081EC90E021EC30E0F90120812F7EFC012E
:1011820020830000DF91CF910895CF93DF93CDB7F5
:10119200DEB786EC90E0FC018081DF91CF9108956B
:1011A200CF93DF93CDB7DEB780EC90E0FC01808176
:1011B200881F8827881FDF91CF910895CF93DF93EF
:1011C200CDB7DEB780EC90E0FC018081882F90E003
:1011D2008072992721E0892B09F420E0822FDF9188
:1011E200CF910895CF93DF93CDB7DEB780EC90E037
:1011F200FC018081882F90E08074992721E0892B5F
:1012020009F020E0822FDF91CF910895CF93DF93F1
:10121200CDB7DEB780EC90E0FC018081882F90E0B2
:101222008074992721E0892B09F420E0822FDF9135
:10123200CF910895CF93DF93CDB7DEB710922901F6
:101242001092280180EC90E0FC018081882F90E0D0
:1012520080719927892B89F080912801826080937F
:10126200280180912A0190912B01892B31F08091E4
:101272002A0190912B01FC01099580EC90E0FC0180
:101282008081882F90E084709927892B89F0809142
:10129200280181608093280180912E0190912F0175
:1012A200892B31F080912E0190912F01FC0109953B
:1012B20080EC90E0FC018081882F90E08870992773
:1012C200892B89F080912801846080932801809184
:1012D2002C0190912D01892B31F080912C0190915C
:1012E2002D01FC0109958091280190912901DF913E
:1012F200CF910895CF93DF93CDB7DEB786EC90E020
:10130200FC018081DF91CF910895CF93DF930F92FB
:10131200CDB7DEB7898386EC90E02981FC0120837A
:1013220000000F90DF91CF910895CF93DF93CDB757
:10133200DEB70000DF91CF910895CF93DF93CDB751
:10134200DEB70000DF91CF910895CF93DF93CDB741
:10135200DEB70000DF91CF910895CF93DF9300D0E5
:10136200CDB7DEB79A83898389819A81892B31F03F
:1013720089819A8190932B0180932A0100000F901A
:101382000F90DF91CF910895CF93DF9300D0CDB727
:10139200DEB79A83898389819A81892B31F0898189
:1013A2009A8190932D0180932C0100000F900F9051
:1013B200DF91CF910895CF93DF9300D0CDB7DEB701
:1013C2009A83898389819A81892B31F089819A81D3
:1013D20090932F0180932E0100000F900F90DF91C8
:0413E200CF9108950A
:1013E600AFE0B0E0E9EFF9E00C94D60F1C016B0119
:1013F6005A8349832B83FB01828193818480958064
:1014060000811181A680B78097FD02C00D7F02C0C2
:1014160081E090E0E981FA814080518062807380AA
:101426009801207133273D832C83740104FF08C083
:10143600411451046104710419F032E0E31AF10811
:10144600F801E870FF27FF83EE8303FF03C0F1E096
:10145600EF1AF108F6010084F185E02D3197FF8738
:10146600EE87EA0DFB1D10829C012E193F09398774
:101476002887C801827099279B878A87EB818E2FE0
:10148600EE0F990B9C01215431093D872C872E853F
:101496003F852230310530F48C819D81892B09F0FE
:1014A60042C05CC0411451046104710461F18E852F
:1014B6009F8501979F878E87C2018F7099278A30F3
:1014C600910514F4C09602C0895A9F4FEC85FD859C
:1014D6007A9748F49C012062215631092A31310558
:1014E60010F40E948110EE85FF85EA0DFB1D8083B6
:1014F600F1E0EF1AF10884E07694679457944794E4
:101506008A95D1F7C4CF888599858E0D9F1D1816AB
:1015160019066CF21E141F040CF0BECFEA85FB857B
:10152600EF2B29F6B9CFE981FA8180819181A281D9
:10153600B381892B8A2B8B2B89F0EE85FF85EA0DEB
:10154600FB1D31972B8120838E859F8502979F8770
:101556008E87FC01EA0DFB1D80E38083EE81FF810F
:10156600EF2B59F02E853F85215031093F872E8775
:10157600F901EA0DFB1D80E28083F6014085518565
:10158600415051092E853F85421B530BB9016A0D07
:101596007B1D9401C1010E940E0E9C01F101808108
:1015A600918190FF06C0F60182819381821793078D
:0C15B6000CF4C9012F96E2E10C94F20F36
:1015C200A2E0B0E0E7EEFAE00C94D60F3C016B012A
:1015D200FB0122813381A480B580808191819A832D
:1015E200898386809780FA012080318042805380EF
:1015F200B201A10157FE07C044275527BA0142197B
:1016020053096409750937FD03C08D7F9A83898365
:10161200950157FC05C0898182FD02C083FF02C08B
:1016220021503109CE0101967C010AE010E0C60189
:101632000E94250C57FC03C0298122FF0AC0019792
:10164200F401E80FF91F57FC02C02BE209C02DE29A
:1016520007C023FF06C00197F401E80FF91F20E23B
:10166200208309811A81F601408551854150510933
:10167200481B590BB401680F791F9501C3010E94E1
:101682000E0E9C01F3018081918190FF06C0F6014C
:1016920082819381821793070CF4C9012296E2E1B9
:0416A2000C94F20FA3
:1016A6000FC00E94991038F00E94A01020F09523D8
:1016B60011F00C94AE100C94C21011240C949310DB
:1016C6000E94550F70F3959FC1F3950F50E0551F7B
:1016D600629FF001729FBB27F00DB11D639FAA2781
:1016E600F00DB11DAA1F649F6627B00DA11D661FD0
:1016F600829F2227B00DA11D621F739FB00DA11DF1
:10170600621F839FA00D611D221F749F3327A00DAA
:10171600611D231F849F600D211D822F762F6A2F46
:1017260011249F5750409AF0F1F088234AF0EE0FAB
:10173600FF1FBB1F661F771F881F91505040A9F7D8
:101746009E3F510580F00C94AE100C9493105F3FB1
:10175600E4F3983ED4F3869577956795B795F79514
:10176600E7959F5FC1F7FE2B880F911D969587958C
:0417760097F9089542
:10177A00CF93DF93DC01F90168387105F1F05CF46D
:10178A006138710561F164387105A1F1603871053C
:10179A0009F051C02FC0603C710509F441C0603F97
:1017AA007105F1F1603A710509F045C0C081D18136
:1017BA00CE0102969183808325C0C081D181CE015A
:1017CA00029691838083452B39F04881042E000CC0
:1017DA00550B660B770B1CC0488150E029C0C081AD
:1017EA00D181CE01049691838083488159816A818F
:1017FA007B810EC0C081D181CE0102969183808304
:10180A00452BA1F048815981052E000C660B770BF8
:10181A004D935D936D937C93139781E090E00DC097
:10182A00C081D181CE0102969183808348815981FA
:10183A0060E070E0EDCF80E090E0DF91CF91089515
:10184A00A0E0B0E0EBE2FCE00C94D80FDC01280148
:10185A001696AD90BC901797F701808191811296E8
:10186A00ED91FC9113971896CD91DC9119972197D8
:10187A00F7FF02C0E1E0F0E0CA0DDB1D1882690142
:10188A00A1E0B0E08F01021B130B4C01F2E08F22A2
:10189A009924052C000C66087708CE018A199B0941
:1018AA00CA15DB0519F1411551056105710589F064
:1018BA00CB01BA01A30192010E94770FCA01A62F98
:1018CA00B72F605D6A9341E0C41AD108A901BC012F
:1018DA00E4CF98012C0D3D1D121613064CF31C146F
:1018EA001D0434F48114910419F702C080E090E0D9
:1018FA00AB2B31F4F701208131812F7E3183208394
:0A190A00CDB7DEB7E0E10C94F40F56
:10191400CF93DF93CDB7DEB784E690E0FC0110826D
:1019240081E690E0FC01108283E590E0FC011082E6
:1019340085E590E0FC0110820000DF91CF910895CD
:10194400CF93DF93CDB7DEB783E590E023E530E0B6
:10195400F90120812160FC0120830000DF91CF91F7
:101964000895CF93DF93CDB7DEB783E590E023E509
:1019740030E0F90120812E7FFC0120830000DF91FB
:10198400CF910895CF93DF930F92CDB7DEB78983BC
:1019940083E590E023E530E0F9012081322F317FA7
:1019A4002981232BFC01208300000F90DF91CF912C
:1019B4000895CF93DF93CDB7DEB784E690E02FEEA2
:0C19C400FC0120830000DF91CF9108950A
:1019D000A2E0B0E0EEEEFCE00C94DA0F4C016B01FB
:1019E000FB012281338164807580808191819A839B
:1019F0008983A680B78037FD03C08D7F9A83898352
:101A0000FA014081518162817381CE0101967C018E
:101A100008E010E09301C6010E94250C298124FFF3
:101A200006C00197F501E80FF91F20E32083298103
:101A300023FF06C00197F501E80FF91F20E220837C
:101A400009811A81F6014085518541505109481B91
:101A5000590BB501680F791F9301C4010E940E0E46
:101A60009C01F4018081918190FF06C0F601828182
:101A70009381821793070CF4C9012296EEE00C942F
:021A8000F60F5F
:101A82000F931F93CF93DF93DB01109719F48FEF1E
:101A92009FEF3DC02D913C91119730FF25C01696C6
:101AA2004D915C91179714962D913C911597421781
:101AB200530778F41296ED91FC9113978083129656
:101AC2002D913C9113972F5F3F4F13963C932E938A
:101AD200129716962D913C9117972F5F3F4F1796AD
:101AE2003C932E93169713C01C96ED91FC911D9773
:101AF200309769F2EB01092F182F0995892B39F6D6
:101B02008E819F8101969F838E83812F902FDF91FB
:081B1200CF911F910F9108957E
:101B1A00A2E0B0E0E3E9FDE00C94DA0F5C016B01AE
:101B2A00FB012281338184809580808191819A830F
:101B3A0089836680778037FD03C08D7F9A83898386
:101B4A00FA014081518162817381CE0101967C0143
:101B5A000AE010E09401C6010E94250C09811A814D
:101B6A00F6014085518541505109481B590BB30173
:101B7A00680F791F9401C5010E940E0E9C01F501A0
:101B8A008081918190FF06C0F6018281938182173C
:0E1B9A0093070CF4C9012296EEE00C94F60FAE
:101BA800A0E1B0E0EAEDFDE00C94E20FFB01BA0120
:101BB800AE014F5F5F4F7A0140E1D7011D924A9510
:101BC800E9F742E051E05A8349839C838B83F7FF0E
:101BD80009C08FE490E090930101809300018FEF9A
:101BE8009FEF14C0A9018C013197FE83ED83C701D3
:101BF8000E940D104F8158852D813E814217530751
:101C080008F49A01F801E20FF31F10826096E6E0EB
:041C18000C94FE0F1B
:101C1C00A0E0B0E0E4E1FEE00C94DC0F6C015B01B1
:101C2C007A01E901480181E08822992400FD03C072
:101C3C004217530750F0A701B501C6010E94B90F16
:101C4C00EC16FD0610F0C70117C08E010E191F0906
:101C5C000115110541F0B60180E290E00E94410DA2
:101C6C0001501109F5CF8114910429F4A701B50194
:101C7C00C6010E94B90FCE01CDB7DEB7ECE00C94D3
:021C8C00F80F4F
:101C8E00A2E8B0E0EDE4FEE00C94DC0F5C014A014A
:101C9E007A836983C12CD12CE981FA8180818823D2
:101CAE00E9F07401860120E830E0AE014D5F5F4F30
:101CBE00BE016F5F7F4FC5010E941B068C0D9D1DDF
:101CCE008C159D054CF48FE490E090930101809368
:101CDE0000018FEF9FEF03C06C01DECFC601CE5720
:081CEE00DF4FECE00C94F80F4D
:101CF600CF93DF93CDB7DEB784E290E023E0FC011B
:101D0600208387E290E0FC0110828AE290E022EED6
:101D1600FC01208385E290E02CE3FC01208388E22D
:101D260090E0FC0110828BE290E0FC01108283E2DD
:101D360090E0FC01108286E290E0FC01108289E2CC
:0E1D460090E0FC0110820000DF91CF91089523
:101D54000E945D0F88F09F5798F0B92F9927B751CB
:101D6400B0F0E1F0660F771F881F991F1AF0BA953B
:101D7400C9F714C0B13091F00E949210B1E00895F7
:101D84000C949210672F782F8827B85F39F0B93FE9
:101D9400CCF3869577956795B395D9F73EF49095EE
:0E1DA4008095709561957F4F8F4F9F4F0895EA
:101DB200DC01ED91FC91119780818A3221F080E063
:101DC20090E03AE00EC03196ED93FC93DB01ED9189
:101DD200FC911197CF0102968D939C938081918102
:101DE2000895ED91FC911197208120532A3068F4D7
:101DF200389FA001399F500D1124CA01820F911DF5
:0C1E020031961196FC93EE93ECCF0895FE
:101E0E00A0E0B0E0EDE0FFE00C94DE0F7C01FB0102
:101E1E00EA01C901A280B380C480D58000811181FE
:101E2E00209711F4C0E3D1E0009719F4CE010E947F
:101E3E006810B7FC04C0A816B90608F4C5019601CF
:101E4E00AC01BE01C7010E940E0ECDB7DEB7EAE0AF
:041E5E000C94FA0FD7
:101E6200990F0008550FAA0BE0E8FEEF16161706A9
:101E7200E807F907C0F012161306E407F50798F011
:101E8200621B730B840B950B39F40A2661F0232B2A
:101E9200242B252B21F408950A2609F4A140A695A6
:081EA2008FEF811D811D0895E1
:101EAA0057FD9058440F551F59F05F3F71F0479501
:101EBA00880F97FB991F61F09F3F79F087950895E6
:101ECA00121613061406551FF2CF4695F1DF08C005
:101EDA00161617061806991FF1CF86957105610522
:041EEA0008940895BB
:101EEE00A1E21A2EAA1BBB1BFD010DC0AA1FBB1F10
:101EFE00EE1FFF1FA217B307E407F50720F0A21B82
:101F0E00B30BE40BF50B661F771F881F991F1A94EE
:101F1E0069F760957095809590959B01AC01BD0118
:041F2E00CF01089542
:101F3200CF93DF93EC0190E0E92FF0E0EE0FFF1F6B
:101F4200EE5FFE4F8081811102C081810EC0A881A7
:101F5200B9812C91821305C091811196B983A8830E
:101F620001C09F5F9B3040F3892FDF91CF9108958D
:101F7200A0E0B0E0EFEBFFE00C94E00F6C01EB01AE
:101F82008A017B01E40EF51ECE15DF0541F0899131
:101F9200B601082E000C990B0E94410DF5CFC80125
:0A1FA200CDB7DEB7E8E00C94FC0FA9
:101FAC002F923F924F925F926F927F928F929F925D
:101FBC00AF92BF92CF92DF92EF92FF920F931F934B
:101FCC00CF93DF93CDB7DEB7CA1BDB0B0FB6F894FC
:081FDC00DEBF0FBECDBF09946A
:101FE4002A88398848885F846E847D848C849B84A5
:101FF400AA84B984C884DF80EE80FD800C811B81B3
:10200400AA81B981CE0FD11D0FB6F894DEBF0FBEE1
:06201400CDBFED010895AF
:10201A00A2E0B0E0E3E1F0E10C94E40F8C015A8312
:10202A004983AE014F5F5F4F0E94470EF80120813E
:10203A0024FF02C08FEF9FEF2296E4E00C94001079
:10204A00A0E0B0E0EBE2F0E10C94E60FAE01475FEE
:10205A005F4F6F8178858D819E810E94A710E2E093
:04206A000C940210C0
:10206E00092E0394000C11F4882352F0BB0F40F498
:10207E00BF2B11F460FF04C06F5F7F4F8F4F9F4FD8
:02208E000895B3
:10209000CF93DF93CDB7DEB785E590E0FC011082EA
:1020A0008FE590E0FC01108280E0DF91CF910895F0
:1020B000CF93DF93CDB7DEB70E948A0C0E947B0ED0
:1020C0000E9448100E9419080000DF91CF910895E6
:1020D000FC01AF014F5F5F4F2081222311F0FA0115
:0C20E000F8CF9F01281B390BC90108959F
:1020EC00EC010E94CA100E94C910CE010E94CB10B4
:0620FC00CE010E94C71096
:102102009C01215631092A31310510F48F75992726
:0221120008952E
:102114009C01215431092A31310508F48062089563
:0E212400E894BB2766277727CB0197F908952B
:0E21320000240A9416161706180609060895CA
:0E21400000240A9412161306140605060895CC
:0E214E009A01AB016FEF7FE70E94D40D089558
:0C215C0097F99F6780E870E060E008954C
:0A2168000E94310F08F481E0089591
:0A2172000E94310F08F48FEF08956A
:08217C000E94530B0C94371074
:062184009FEF80EC0895BE
:04218A000C940000B1
:04218E000E94680043
:022192000895AE
:022194000895AC
:022196000895AA
:1021980068076C094C836A9074A07AC000806888CC
:0621A80000846C8200813E
:1021AE00486F6C61204D756E646F0D0A00256400DA
:0721BE00286E756C6C29000E
:0621C500286E696C290080
:02000004008278
:03000000A2DF0775
:00000001FF
